{
  "contractName": "ERC20tokan",
  "abi": [
    {
      "inputs": [
        {
          "internalType": "address",
          "name": "_treasuryWallet",
          "type": "address"
        }
      ],
      "stateMutability": "nonpayable",
      "type": "constructor"
    },
    {
      "inputs": [
        {
          "internalType": "address",
          "name": "spender",
          "type": "address"
        },
        {
          "internalType": "uint256",
          "name": "allowance",
          "type": "uint256"
        },
        {
          "internalType": "uint256",
          "name": "needed",
          "type": "uint256"
        }
      ],
      "name": "ERC20InsufficientAllowance",
      "type": "error"
    },
    {
      "inputs": [
        {
          "internalType": "address",
          "name": "sender",
          "type": "address"
        },
        {
          "internalType": "uint256",
          "name": "balance",
          "type": "uint256"
        },
        {
          "internalType": "uint256",
          "name": "needed",
          "type": "uint256"
        }
      ],
      "name": "ERC20InsufficientBalance",
      "type": "error"
    },
    {
      "inputs": [
        {
          "internalType": "address",
          "name": "approver",
          "type": "address"
        }
      ],
      "name": "ERC20InvalidApprover",
      "type": "error"
    },
    {
      "inputs": [
        {
          "internalType": "address",
          "name": "receiver",
          "type": "address"
        }
      ],
      "name": "ERC20InvalidReceiver",
      "type": "error"
    },
    {
      "inputs": [
        {
          "internalType": "address",
          "name": "sender",
          "type": "address"
        }
      ],
      "name": "ERC20InvalidSender",
      "type": "error"
    },
    {
      "inputs": [
        {
          "internalType": "address",
          "name": "spender",
          "type": "address"
        }
      ],
      "name": "ERC20InvalidSpender",
      "type": "error"
    },
    {
      "inputs": [
        {
          "internalType": "address",
          "name": "owner",
          "type": "address"
        }
      ],
      "name": "OwnableInvalidOwner",
      "type": "error"
    },
    {
      "inputs": [
        {
          "internalType": "address",
          "name": "account",
          "type": "address"
        }
      ],
      "name": "OwnableUnauthorizedAccount",
      "type": "error"
    },
    {
      "anonymous": false,
      "inputs": [
        {
          "indexed": true,
          "internalType": "address",
          "name": "owner",
          "type": "address"
        },
        {
          "indexed": true,
          "internalType": "address",
          "name": "spender",
          "type": "address"
        },
        {
          "indexed": false,
          "internalType": "uint256",
          "name": "value",
          "type": "uint256"
        }
      ],
      "name": "Approval",
      "type": "event"
    },
    {
      "anonymous": false,
      "inputs": [
        {
          "indexed": true,
          "internalType": "address",
          "name": "previousOwner",
          "type": "address"
        },
        {
          "indexed": true,
          "internalType": "address",
          "name": "newOwner",
          "type": "address"
        }
      ],
      "name": "OwnershipTransferred",
      "type": "event"
    },
    {
      "anonymous": false,
      "inputs": [
        {
          "indexed": true,
          "internalType": "address",
          "name": "from",
          "type": "address"
        },
        {
          "indexed": true,
          "internalType": "address",
          "name": "to",
          "type": "address"
        },
        {
          "indexed": false,
          "internalType": "uint256",
          "name": "value",
          "type": "uint256"
        }
      ],
      "name": "Transfer",
      "type": "event"
    },
    {
      "inputs": [],
      "name": "MAX_TOKEN_HOLD",
      "outputs": [
        {
          "internalType": "uint256",
          "name": "",
          "type": "uint256"
        }
      ],
      "stateMutability": "view",
      "type": "function"
    },
    {
      "inputs": [],
      "name": "MAX_TRAN_LIMIT",
      "outputs": [
        {
          "internalType": "uint256",
          "name": "",
          "type": "uint256"
        }
      ],
      "stateMutability": "view",
      "type": "function"
    },
    {
      "inputs": [],
      "name": "TOTAL_SUPPLY",
      "outputs": [
        {
          "internalType": "uint256",
          "name": "",
          "type": "uint256"
        }
      ],
      "stateMutability": "view",
      "type": "function"
    },
    {
      "inputs": [
        {
          "internalType": "address",
          "name": "owner",
          "type": "address"
        },
        {
          "internalType": "address",
          "name": "spender",
          "type": "address"
        }
      ],
      "name": "allowance",
      "outputs": [
        {
          "internalType": "uint256",
          "name": "",
          "type": "uint256"
        }
      ],
      "stateMutability": "view",
      "type": "function"
    },
    {
      "inputs": [
        {
          "internalType": "address",
          "name": "spender",
          "type": "address"
        },
        {
          "internalType": "uint256",
          "name": "value",
          "type": "uint256"
        }
      ],
      "name": "approve",
      "outputs": [
        {
          "internalType": "bool",
          "name": "",
          "type": "bool"
        }
      ],
      "stateMutability": "nonpayable",
      "type": "function"
    },
    {
      "inputs": [
        {
          "internalType": "address",
          "name": "account",
          "type": "address"
        }
      ],
      "name": "balanceOf",
      "outputs": [
        {
          "internalType": "uint256",
          "name": "",
          "type": "uint256"
        }
      ],
      "stateMutability": "view",
      "type": "function"
    },
    {
      "inputs": [],
      "name": "decimals",
      "outputs": [
        {
          "internalType": "uint8",
          "name": "",
          "type": "uint8"
        }
      ],
      "stateMutability": "view",
      "type": "function"
    },
    {
      "inputs": [],
      "name": "name",
      "outputs": [
        {
          "internalType": "string",
          "name": "",
          "type": "string"
        }
      ],
      "stateMutability": "view",
      "type": "function"
    },
    {
      "inputs": [],
      "name": "owner",
      "outputs": [
        {
          "internalType": "address",
          "name": "",
          "type": "address"
        }
      ],
      "stateMutability": "view",
      "type": "function"
    },
    {
      "inputs": [],
      "name": "renounceOwnership",
      "outputs": [],
      "stateMutability": "nonpayable",
      "type": "function"
    },
    {
      "inputs": [],
      "name": "symbol",
      "outputs": [
        {
          "internalType": "string",
          "name": "",
          "type": "string"
        }
      ],
      "stateMutability": "view",
      "type": "function"
    },
    {
      "inputs": [],
      "name": "totalSupply",
      "outputs": [
        {
          "internalType": "uint256",
          "name": "",
          "type": "uint256"
        }
      ],
      "stateMutability": "view",
      "type": "function"
    },
    {
      "inputs": [],
      "name": "totalTranTax",
      "outputs": [
        {
          "internalType": "uint256",
          "name": "",
          "type": "uint256"
        }
      ],
      "stateMutability": "view",
      "type": "function"
    },
    {
      "inputs": [
        {
          "internalType": "address",
          "name": "to",
          "type": "address"
        },
        {
          "internalType": "uint256",
          "name": "value",
          "type": "uint256"
        }
      ],
      "name": "transfer",
      "outputs": [
        {
          "internalType": "bool",
          "name": "",
          "type": "bool"
        }
      ],
      "stateMutability": "nonpayable",
      "type": "function"
    },
    {
      "inputs": [
        {
          "internalType": "address",
          "name": "from",
          "type": "address"
        },
        {
          "internalType": "address",
          "name": "to",
          "type": "address"
        },
        {
          "internalType": "uint256",
          "name": "value",
          "type": "uint256"
        }
      ],
      "name": "transferFrom",
      "outputs": [
        {
          "internalType": "bool",
          "name": "",
          "type": "bool"
        }
      ],
      "stateMutability": "nonpayable",
      "type": "function"
    },
    {
      "inputs": [
        {
          "internalType": "address",
          "name": "newOwner",
          "type": "address"
        }
      ],
      "name": "transferOwnership",
      "outputs": [],
      "stateMutability": "nonpayable",
      "type": "function"
    },
    {
      "inputs": [],
      "name": "treasuryWallet",
      "outputs": [
        {
          "internalType": "address",
          "name": "",
          "type": "address"
        }
      ],
      "stateMutability": "view",
      "type": "function"
    },
    {
      "inputs": [
        {
          "internalType": "address",
          "name": "",
          "type": "address"
        }
      ],
      "name": "whitelist",
      "outputs": [
        {
          "internalType": "bool",
          "name": "",
          "type": "bool"
        }
      ],
      "stateMutability": "view",
      "type": "function"
    },
    {
      "inputs": [
        {
          "internalType": "address",
          "name": "_from",
          "type": "address"
        },
        {
          "internalType": "address",
          "name": "_to",
          "type": "address"
        },
        {
          "internalType": "uint256",
          "name": "_amount",
          "type": "uint256"
        }
      ],
      "name": "customTransfer",
      "outputs": [],
      "stateMutability": "nonpayable",
      "type": "function"
    },
    {
      "inputs": [
        {
          "internalType": "address",
          "name": "_address",
          "type": "address"
        },
        {
          "internalType": "bool",
          "name": "_status",
          "type": "bool"
        }
      ],
      "name": "setWhitelist",
      "outputs": [],
      "stateMutability": "nonpayable",
      "type": "function"
    },
    {
      "inputs": [
        {
          "internalType": "address",
          "name": "_address",
          "type": "address"
        }
      ],
      "name": "setTreasuryWallet",
      "outputs": [],
      "stateMutability": "nonpayable",
      "type": "function"
    },
    {
      "inputs": [
        {
          "internalType": "uint256",
          "name": "_newTaxPercent",
          "type": "uint256"
        }
      ],
      "name": "setTransferTaxPercent",
      "outputs": [],
      "stateMutability": "nonpayable",
      "type": "function"
    }
  ],
  "bytecode": "0x6080604052600360075534801562000015575f80fd5b50604051620021993803806200219983398181016040528101906200003b91906200058d565b336040518060400160405280600b81526020017f4552432d746f6b656e32300000000000000000000000000000000000000000008152506040518060400160405280600681526020017f45524354323000000000000000000000000000000000000000000000000000008152508160039081620000b9919062000821565b508060049081620000cb919062000821565b5050505f73ffffffffffffffffffffffffffffffffffffffff168173ffffffffffffffffffffffffffffffffffffffff160362000141575f6040517f1e4fbdf700000000000000000000000000000000000000000000000000000000815260040162000138919062000916565b60405180910390fd5b6200015281620001b760201b60201c565b508060065f6101000a81548173ffffffffffffffffffffffffffffffffffffffff021916908373ffffffffffffffffffffffffffffffffffffffff160217905550620001b0336a084595161401484a0000006200027a60201b60201c565b50620009ff565b5f60055f9054906101000a900473ffffffffffffffffffffffffffffffffffffffff1690508160055f6101000a81548173ffffffffffffffffffffffffffffffffffffffff021916908373ffffffffffffffffffffffffffffffffffffffff1602179055508173ffffffffffffffffffffffffffffffffffffffff168173ffffffffffffffffffffffffffffffffffffffff167f8be0079c531659141344cd1fd0a4f28419497f9722a3daafe3b4186f6b6457e060405160405180910390a35050565b5f73ffffffffffffffffffffffffffffffffffffffff168273ffffffffffffffffffffffffffffffffffffffff1603620002ed575f6040517fec442f05000000000000000000000000000000000000000000000000000000008152600401620002e4919062000916565b60405180910390fd5b620003005f83836200030460201b60201c565b5050565b5f73ffffffffffffffffffffffffffffffffffffffff168373ffffffffffffffffffffffffffffffffffffffff160362000358578060025f8282546200034b91906200095e565b9250508190555062000429565b5f805f8573ffffffffffffffffffffffffffffffffffffffff1673ffffffffffffffffffffffffffffffffffffffff1681526020019081526020015f2054905081811015620003e4578381836040517fe450d38c000000000000000000000000000000000000000000000000000000008152600401620003db93929190620009a9565b60405180910390fd5b8181035f808673ffffffffffffffffffffffffffffffffffffffff1673ffffffffffffffffffffffffffffffffffffffff1681526020019081526020015f2081905550505b5f73ffffffffffffffffffffffffffffffffffffffff168273ffffffffffffffffffffffffffffffffffffffff160362000472578060025f8282540392505081905550620004bc565b805f808473ffffffffffffffffffffffffffffffffffffffff1673ffffffffffffffffffffffffffffffffffffffff1681526020019081526020015f205f82825401925050819055505b8173ffffffffffffffffffffffffffffffffffffffff168373ffffffffffffffffffffffffffffffffffffffff167fddf252ad1be2c89b69c2b068fc378daa952ba7f163c4a11628f55a4df523b3ef836040516200051b9190620009e4565b60405180910390a3505050565b5f80fd5b5f73ffffffffffffffffffffffffffffffffffffffff82169050919050565b5f62000557826200052c565b9050919050565b62000569816200054b565b811462000574575f80fd5b50565b5f8151905062000587816200055e565b92915050565b5f60208284031215620005a557620005a462000528565b5b5f620005b48482850162000577565b91505092915050565b5f81519050919050565b7f4e487b71000000000000000000000000000000000000000000000000000000005f52604160045260245ffd5b7f4e487b71000000000000000000000000000000000000000000000000000000005f52602260045260245ffd5b5f60028204905060018216806200063957607f821691505b6020821081036200064f576200064e620005f4565b5b50919050565b5f819050815f5260205f209050919050565b5f6020601f8301049050919050565b5f82821b905092915050565b5f60088302620006b37fffffffffffffffffffffffffffffffffffffffffffffffffffffffffffffffff8262000676565b620006bf868362000676565b95508019841693508086168417925050509392505050565b5f819050919050565b5f819050919050565b5f6200070962000703620006fd84620006d7565b620006e0565b620006d7565b9050919050565b5f819050919050565b6200072483620006e9565b6200073c620007338262000710565b84845462000682565b825550505050565b5f90565b6200075262000744565b6200075f81848462000719565b505050565b5b8181101562000786576200077a5f8262000748565b60018101905062000765565b5050565b601f821115620007d5576200079f8162000655565b620007aa8462000667565b81016020851015620007ba578190505b620007d2620007c98562000667565b83018262000764565b50505b505050565b5f82821c905092915050565b5f620007f75f1984600802620007da565b1980831691505092915050565b5f620008118383620007e6565b9150826002028217905092915050565b6200082c82620005bd565b67ffffffffffffffff811115620008485762000847620005c7565b5b62000854825462000621565b620008618282856200078a565b5f60209050601f83116001811462000897575f841562000882578287015190505b6200088e858262000804565b865550620008fd565b601f198416620008a78662000655565b5f5b82811015620008d057848901518255600182019150602085019450602081019050620008a9565b86831015620008f05784890151620008ec601f891682620007e6565b8355505b6001600288020188555050505b505050505050565b62000910816200054b565b82525050565b5f6020820190506200092b5f83018462000905565b92915050565b7f4e487b71000000000000000000000000000000000000000000000000000000005f52601160045260245ffd5b5f6200096a82620006d7565b91506200097783620006d7565b925082820190508082111562000992576200099162000931565b5b92915050565b620009a381620006d7565b82525050565b5f606082019050620009be5f83018662000905565b620009cd602083018562000998565b620009dc604083018462000998565b949350505050565b5f602082019050620009f95f83018462000998565b92915050565b61178c8062000a0d5f395ff3fe608060405234801561000f575f80fd5b5060043610610140575f3560e01c8063715018a6116100b6578063a8602fea1161007a578063a8602fea14610352578063a9059cbb1461036e578063ae2366831461039e578063d9a39746146103bc578063dd62ed3e146103da578063f2fde38b1461040a57610140565b8063715018a6146102be5780638da5cb5b146102c8578063902d55a5146102e657806395d89b41146103045780639b19251a1461032257610140565b80632721b9a5116101085780632721b9a5146101fe578063313ce5671461021a5780634626402b146102385780634f8f4dab1461025657806353d6fd591461027257806370a082311461028e57610140565b806306fdde0314610144578063095ea7b3146101625780631688d1371461019257806318160ddd146101b057806323b872dd146101ce575b5f80fd5b61014c610426565b60405161015991906111d1565b60405180910390f35b61017c60048036038101906101779190611282565b6104b6565b60405161018991906112da565b60405180910390f35b61019a6104d8565b6040516101a79190611302565b60405180910390f35b6101b86104de565b6040516101c59190611302565b60405180910390f35b6101e860048036038101906101e3919061131b565b6104e7565b6040516101f591906112da565b60405180910390f35b6102186004803603810190610213919061136b565b610515565b005b610222610527565b60405161022f91906113b1565b60405180910390f35b61024061052f565b60405161024d91906113d9565b60405180910390f35b610270600480360381019061026b919061131b565b610554565b005b61028c6004803603810190610287919061141c565b61071d565b005b6102a860048036038101906102a3919061145a565b61077d565b6040516102b59190611302565b60405180910390f35b6102c66107c2565b005b6102d06107d5565b6040516102dd91906113d9565b60405180910390f35b6102ee6107fd565b6040516102fb9190611302565b60405180910390f35b61030c61080c565b60405161031991906111d1565b60405180910390f35b61033c6004803603810190610337919061145a565b61089c565b60405161034991906112da565b60405180910390f35b61036c6004803603810190610367919061145a565b6108b9565b005b61038860048036038101906103839190611282565b610904565b60405161039591906112da565b60405180910390f35b6103a6610926565b6040516103b39190611302565b60405180910390f35b6103c461094d565b6040516103d19190611302565b60405180910390f35b6103f460048036038101906103ef9190611485565b610974565b6040516104019190611302565b60405180910390f35b610424600480360381019061041f919061145a565b6109f6565b005b606060038054610435906114f0565b80601f0160208091040260200160405190810160405280929190818152602001828054610461906114f0565b80156104ac5780601f10610483576101008083540402835291602001916104ac565b820191905f5260205f20905b81548152906001019060200180831161048f57829003601f168201915b5050505050905090565b5f806104c0610a7a565b90506104cd818585610a81565b600191505092915050565b60075481565b5f600254905090565b5f806104f1610a7a565b90506104fe858285610a93565b610509858585610b25565b60019150509392505050565b61051d610c15565b8060078190555050565b5f6012905090565b60065f9054906101000a900473ffffffffffffffffffffffffffffffffffffffff1681565b606460026a084595161401484a00000061056e919061154d565b61057891906115bb565b8111156105ba576040517f08c379a00000000000000000000000000000000000000000000000000000000081526004016105b190611635565b60405180910390fd5b606460056a084595161401484a0000006105d4919061154d565b6105de91906115bb565b816105e88461077d565b6105f29190611653565b111580610645575060085f8373ffffffffffffffffffffffffffffffffffffffff1673ffffffffffffffffffffffffffffffffffffffff1681526020019081526020015f205f9054906101000a900460ff165b610684576040517f08c379a000000000000000000000000000000000000000000000000000000000815260040161067b906116d0565b60405180910390fd5b5f606460075483610695919061154d565b61069f91906115bb565b90505f81836106ae91906116ee565b90506106f48560065f9054906101000a900473ffffffffffffffffffffffffffffffffffffffff1660036002866106e5919061154d565b6106ef91906115bb565b610b25565b61070b855f60038561070691906115bb565b610b25565b610716858583610b25565b5050505050565b610725610c15565b8060085f8473ffffffffffffffffffffffffffffffffffffffff1673ffffffffffffffffffffffffffffffffffffffff1681526020019081526020015f205f6101000a81548160ff0219169083151502179055505050565b5f805f8373ffffffffffffffffffffffffffffffffffffffff1673ffffffffffffffffffffffffffffffffffffffff1681526020019081526020015f20549050919050565b6107ca610c15565b6107d35f610c9c565b565b5f60055f9054906101000a900473ffffffffffffffffffffffffffffffffffffffff16905090565b6a084595161401484a00000081565b60606004805461081b906114f0565b80601f0160208091040260200160405190810160405280929190818152602001828054610847906114f0565b80156108925780601f1061086957610100808354040283529160200191610892565b820191905f5260205f20905b81548152906001019060200180831161087557829003601f168201915b5050505050905090565b6008602052805f5260405f205f915054906101000a900460ff1681565b6108c1610c15565b8060065f6101000a81548173ffffffffffffffffffffffffffffffffffffffff021916908373ffffffffffffffffffffffffffffffffffffffff16021790555050565b5f8061090e610a7a565b905061091b818585610b25565b600191505092915050565b606460026a084595161401484a000000610940919061154d565b61094a91906115bb565b81565b606460056a084595161401484a000000610967919061154d565b61097191906115bb565b81565b5f60015f8473ffffffffffffffffffffffffffffffffffffffff1673ffffffffffffffffffffffffffffffffffffffff1681526020019081526020015f205f8373ffffffffffffffffffffffffffffffffffffffff1673ffffffffffffffffffffffffffffffffffffffff1681526020019081526020015f2054905092915050565b6109fe610c15565b5f73ffffffffffffffffffffffffffffffffffffffff168173ffffffffffffffffffffffffffffffffffffffff1603610a6e575f6040517f1e4fbdf7000000000000000000000000000000000000000000000000000000008152600401610a6591906113d9565b60405180910390fd5b610a7781610c9c565b50565b5f33905090565b610a8e8383836001610d5f565b505050565b5f610a9e8484610974565b90507fffffffffffffffffffffffffffffffffffffffffffffffffffffffffffffffff8114610b1f5781811015610b10578281836040517ffb8f41b2000000000000000000000000000000000000000000000000000000008152600401610b0793929190611721565b60405180910390fd5b610b1e84848484035f610d5f565b5b50505050565b5f73ffffffffffffffffffffffffffffffffffffffff168373ffffffffffffffffffffffffffffffffffffffff1603610b95575f6040517f96c6fd1e000000000000000000000000000000000000000000000000000000008152600401610b8c91906113d9565b60405180910390fd5b5f73ffffffffffffffffffffffffffffffffffffffff168273ffffffffffffffffffffffffffffffffffffffff1603610c05575f6040517fec442f05000000000000000000000000000000000000000000000000000000008152600401610bfc91906113d9565b60405180910390fd5b610c10838383610f2e565b505050565b610c1d610a7a565b73ffffffffffffffffffffffffffffffffffffffff16610c3b6107d5565b73ffffffffffffffffffffffffffffffffffffffff1614610c9a57610c5e610a7a565b6040517f118cdaa7000000000000000000000000000000000000000000000000000000008152600401610c9191906113d9565b60405180910390fd5b565b5f60055f9054906101000a900473ffffffffffffffffffffffffffffffffffffffff1690508160055f6101000a81548173ffffffffffffffffffffffffffffffffffffffff021916908373ffffffffffffffffffffffffffffffffffffffff1602179055508173ffffffffffffffffffffffffffffffffffffffff168173ffffffffffffffffffffffffffffffffffffffff167f8be0079c531659141344cd1fd0a4f28419497f9722a3daafe3b4186f6b6457e060405160405180910390a35050565b5f73ffffffffffffffffffffffffffffffffffffffff168473ffffffffffffffffffffffffffffffffffffffff1603610dcf575f6040517fe602df05000000000000000000000000000000000000000000000000000000008152600401610dc691906113d9565b60405180910390fd5b5f73ffffffffffffffffffffffffffffffffffffffff168373ffffffffffffffffffffffffffffffffffffffff1603610e3f575f6040517f94280d62000000000000000000000000000000000000000000000000000000008152600401610e3691906113d9565b60405180910390fd5b8160015f8673ffffffffffffffffffffffffffffffffffffffff1673ffffffffffffffffffffffffffffffffffffffff1681526020019081526020015f205f8573ffffffffffffffffffffffffffffffffffffffff1673ffffffffffffffffffffffffffffffffffffffff1681526020019081526020015f20819055508015610f28578273ffffffffffffffffffffffffffffffffffffffff168473ffffffffffffffffffffffffffffffffffffffff167f8c5be1e5ebec7d5bd14f71427d1e84f3dd0314c0f7b2291e5b200ac8c7c3b92584604051610f1f9190611302565b60405180910390a35b50505050565b5f73ffffffffffffffffffffffffffffffffffffffff168373ffffffffffffffffffffffffffffffffffffffff1603610f7e578060025f828254610f729190611653565b9250508190555061104c565b5f805f8573ffffffffffffffffffffffffffffffffffffffff1673ffffffffffffffffffffffffffffffffffffffff1681526020019081526020015f2054905081811015611007578381836040517fe450d38c000000000000000000000000000000000000000000000000000000008152600401610ffe93929190611721565b60405180910390fd5b8181035f808673ffffffffffffffffffffffffffffffffffffffff1673ffffffffffffffffffffffffffffffffffffffff1681526020019081526020015f2081905550505b5f73ffffffffffffffffffffffffffffffffffffffff168273ffffffffffffffffffffffffffffffffffffffff1603611093578060025f82825403925050819055506110dd565b805f808473ffffffffffffffffffffffffffffffffffffffff1673ffffffffffffffffffffffffffffffffffffffff1681526020019081526020015f205f82825401925050819055505b8173ffffffffffffffffffffffffffffffffffffffff168373ffffffffffffffffffffffffffffffffffffffff167fddf252ad1be2c89b69c2b068fc378daa952ba7f163c4a11628f55a4df523b3ef8360405161113a9190611302565b60405180910390a3505050565b5f81519050919050565b5f82825260208201905092915050565b5f5b8381101561117e578082015181840152602081019050611163565b5f8484015250505050565b5f601f19601f8301169050919050565b5f6111a382611147565b6111ad8185611151565b93506111bd818560208601611161565b6111c681611189565b840191505092915050565b5f6020820190508181035f8301526111e98184611199565b905092915050565b5f80fd5b5f73ffffffffffffffffffffffffffffffffffffffff82169050919050565b5f61121e826111f5565b9050919050565b61122e81611214565b8114611238575f80fd5b50565b5f8135905061124981611225565b92915050565b5f819050919050565b6112618161124f565b811461126b575f80fd5b50565b5f8135905061127c81611258565b92915050565b5f8060408385031215611298576112976111f1565b5b5f6112a58582860161123b565b92505060206112b68582860161126e565b9150509250929050565b5f8115159050919050565b6112d4816112c0565b82525050565b5f6020820190506112ed5f8301846112cb565b92915050565b6112fc8161124f565b82525050565b5f6020820190506113155f8301846112f3565b92915050565b5f805f60608486031215611332576113316111f1565b5b5f61133f8682870161123b565b93505060206113508682870161123b565b92505060406113618682870161126e565b9150509250925092565b5f602082840312156113805761137f6111f1565b5b5f61138d8482850161126e565b91505092915050565b5f60ff82169050919050565b6113ab81611396565b82525050565b5f6020820190506113c45f8301846113a2565b92915050565b6113d381611214565b82525050565b5f6020820190506113ec5f8301846113ca565b92915050565b6113fb816112c0565b8114611405575f80fd5b50565b5f81359050611416816113f2565b92915050565b5f8060408385031215611432576114316111f1565b5b5f61143f8582860161123b565b925050602061145085828601611408565b9150509250929050565b5f6020828403121561146f5761146e6111f1565b5b5f61147c8482850161123b565b91505092915050565b5f806040838503121561149b5761149a6111f1565b5b5f6114a88582860161123b565b92505060206114b98582860161123b565b9150509250929050565b7f4e487b71000000000000000000000000000000000000000000000000000000005f52602260045260245ffd5b5f600282049050600182168061150757607f821691505b60208210810361151a576115196114c3565b5b50919050565b7f4e487b71000000000000000000000000000000000000000000000000000000005f52601160045260245ffd5b5f6115578261124f565b91506115628361124f565b92508282026115708161124f565b9150828204841483151761158757611586611520565b5b5092915050565b7f4e487b71000000000000000000000000000000000000000000000000000000005f52601260045260245ffd5b5f6115c58261124f565b91506115d08361124f565b9250826115e0576115df61158e565b5b828204905092915050565b7f5472616e7366657220616d6f756e742065786365656473206c696d69740000005f82015250565b5f61161f601d83611151565b915061162a826115eb565b602082019050919050565b5f6020820190508181035f83015261164c81611613565b9050919050565b5f61165d8261124f565b91506116688361124f565b92508282019050808211156116805761167f611520565b5b92915050565b7f526563697069656e742062616c616e63652065786365656473206c696d6974005f82015250565b5f6116ba601f83611151565b91506116c582611686565b602082019050919050565b5f6020820190508181035f8301526116e7816116ae565b9050919050565b5f6116f88261124f565b91506117038361124f565b925082820390508181111561171b5761171a611520565b5b92915050565b5f6060820190506117345f8301866113ca565b61174160208301856112f3565b61174e60408301846112f3565b94935050505056fea2646970667358221220d2e5b39f32f90c93066c9fc7ce073b7af46e8698f989dc26c21ebae73c2cbd1364736f6c63430008150033",
  "immutableReferences": {},
  "source": "// SPDX-License-Identifier: GPL-3.0\r\npragma solidity >=0.7.0 <0.9.0;\r\n\r\nimport \"@openzeppelin/contracts/token/ERC20/ERC20.sol\"; // basic function of ERC20\r\nimport \"@openzeppelin/contracts/access/Ownable.sol\"; // ownership management\r\n\r\ncontract ERC20tokan is ERC20, Ownable {\r\n\r\n    // constants\r\n    uint256 public constant TOTAL_SUPPLY = 10000000 * (10**18);\r\n    uint256 public constant MAX_TRAN_LIMIT = (TOTAL_SUPPLY * 2) / 100;\r\n    uint256 public constant MAX_TOKEN_HOLD = (TOTAL_SUPPLY * 5) / 100;\r\n\r\n    // tax details\r\n    address public treasuryWallet;\r\n    uint256 public totalTranTax = 3; // total tax transfer (treasury + burn 3%)\r\n\r\n    // whitelisting mapping\r\n    mapping(address => bool) public whitelist;\r\n\r\n    // constructor \r\n    constructor(address _treasuryWallet) ERC20(\"ERC-token20\", \"ERCT20\") Ownable(msg.sender) {\r\n        treasuryWallet=_treasuryWallet;\r\n        _mint(msg.sender, TOTAL_SUPPLY);\r\n    }\r\n\r\n    // override transfer function \r\n    function customTransfer(address _from, address _to, uint256 _amount) public {\r\n        require(_amount <= MAX_TRAN_LIMIT, \"Transfer amount exceeds limit\");\r\n        require(balanceOf(_to) + _amount <= MAX_TOKEN_HOLD || whitelist[_to], \"Recipient balance exceeds limit\");\r\n\r\n        uint256 taxAmount = _amount * totalTranTax / 100;\r\n        uint256 amountAfterTax = _amount - taxAmount;\r\n\r\n        super._transfer(_from, treasuryWallet, taxAmount * 2 / 3);\r\n        super._transfer(_from, address(0), taxAmount / 3);\r\n        super._transfer(_from, _to, amountAfterTax);\r\n    }\r\n\r\n    // function to add or remove address from whitelist\r\n    function setWhitelist(address _address, bool _status) external onlyOwner {\r\n        whitelist[_address] = _status;\r\n    }\r\n\r\n    // function to update the treasury wallet address\r\n    function setTreasuryWallet(address _address) external onlyOwner {\r\n        treasuryWallet = _address;\r\n    }\r\n\r\n    // function to set transfer tax percentage\r\n    function setTransferTaxPercent(uint256 _newTaxPercent) external onlyOwner {\r\n        totalTranTax = _newTaxPercent;\r\n    }\r\n}\r\n",
  "sourcePath": "D:\\windows\\xampp\\htdocs\\first-my-dapp-20240830\\ERC20-token\\contracts\\ERC20tokan.sol",
  "compiler": {
    "name": "solc",
    "version": "0.8.21+commit.d9974bed.Emscripten.clang"
  },
  "schemaVersion": "3.4.16",
  "updatedAt": "2024-09-09T16:03:10.092Z",
  "devdoc": {
    "errors": {
      "ERC20InsufficientAllowance(address,uint256,uint256)": [
        {
          "details": "Indicates a failure with the `spender`s `allowance`. Used in transfers.",
          "params": {
            "allowance": "Amount of tokens a `spender` is allowed to operate with.",
            "needed": "Minimum amount required to perform a transfer.",
            "spender": "Address that may be allowed to operate on tokens without being their owner."
          }
        }
      ],
      "ERC20InsufficientBalance(address,uint256,uint256)": [
        {
          "details": "Indicates an error related to the current `balance` of a `sender`. Used in transfers.",
          "params": {
            "balance": "Current balance for the interacting account.",
            "needed": "Minimum amount required to perform a transfer.",
            "sender": "Address whose tokens are being transferred."
          }
        }
      ],
      "ERC20InvalidApprover(address)": [
        {
          "details": "Indicates a failure with the `approver` of a token to be approved. Used in approvals.",
          "params": {
            "approver": "Address initiating an approval operation."
          }
        }
      ],
      "ERC20InvalidReceiver(address)": [
        {
          "details": "Indicates a failure with the token `receiver`. Used in transfers.",
          "params": {
            "receiver": "Address to which tokens are being transferred."
          }
        }
      ],
      "ERC20InvalidSender(address)": [
        {
          "details": "Indicates a failure with the token `sender`. Used in transfers.",
          "params": {
            "sender": "Address whose tokens are being transferred."
          }
        }
      ],
      "ERC20InvalidSpender(address)": [
        {
          "details": "Indicates a failure with the `spender` to be approved. Used in approvals.",
          "params": {
            "spender": "Address that may be allowed to operate on tokens without being their owner."
          }
        }
      ],
      "OwnableInvalidOwner(address)": [
        {
          "details": "The owner is not a valid owner account. (eg. `address(0)`)"
        }
      ],
      "OwnableUnauthorizedAccount(address)": [
        {
          "details": "The caller account is not authorized to perform an operation."
        }
      ]
    },
    "events": {
      "Approval(address,address,uint256)": {
        "details": "Emitted when the allowance of a `spender` for an `owner` is set by a call to {approve}. `value` is the new allowance."
      },
      "Transfer(address,address,uint256)": {
        "details": "Emitted when `value` tokens are moved from one account (`from`) to another (`to`). Note that `value` may be zero."
      }
    },
    "kind": "dev",
    "methods": {
      "allowance(address,address)": {
        "details": "See {IERC20-allowance}."
      },
      "approve(address,uint256)": {
        "details": "See {IERC20-approve}. NOTE: If `value` is the maximum `uint256`, the allowance is not updated on `transferFrom`. This is semantically equivalent to an infinite approval. Requirements: - `spender` cannot be the zero address."
      },
      "balanceOf(address)": {
        "details": "See {IERC20-balanceOf}."
      },
      "decimals()": {
        "details": "Returns the number of decimals used to get its user representation. For example, if `decimals` equals `2`, a balance of `505` tokens should be displayed to a user as `5.05` (`505 / 10 ** 2`). Tokens usually opt for a value of 18, imitating the relationship between Ether and Wei. This is the default value returned by this function, unless it's overridden. NOTE: This information is only used for _display_ purposes: it in no way affects any of the arithmetic of the contract, including {IERC20-balanceOf} and {IERC20-transfer}."
      },
      "name()": {
        "details": "Returns the name of the token."
      },
      "owner()": {
        "details": "Returns the address of the current owner."
      },
      "renounceOwnership()": {
        "details": "Leaves the contract without owner. It will not be possible to call `onlyOwner` functions. Can only be called by the current owner. NOTE: Renouncing ownership will leave the contract without an owner, thereby disabling any functionality that is only available to the owner."
      },
      "symbol()": {
        "details": "Returns the symbol of the token, usually a shorter version of the name."
      },
      "totalSupply()": {
        "details": "See {IERC20-totalSupply}."
      },
      "transfer(address,uint256)": {
        "details": "See {IERC20-transfer}. Requirements: - `to` cannot be the zero address. - the caller must have a balance of at least `value`."
      },
      "transferFrom(address,address,uint256)": {
        "details": "See {IERC20-transferFrom}. Emits an {Approval} event indicating the updated allowance. This is not required by the EIP. See the note at the beginning of {ERC20}. NOTE: Does not update the allowance if the current allowance is the maximum `uint256`. Requirements: - `from` and `to` cannot be the zero address. - `from` must have a balance of at least `value`. - the caller must have allowance for ``from``'s tokens of at least `value`."
      },
      "transferOwnership(address)": {
        "details": "Transfers ownership of the contract to a new account (`newOwner`). Can only be called by the current owner."
      }
    },
    "version": 1
  },
  "userdoc": {
    "kind": "user",
    "methods": {},
    "version": 1
  }
}