{
  "contractName": "TestToken",
  "abi": [
    {
      "inputs": [
        {
          "internalType": "address",
          "name": "_treasuryWallet",
          "type": "address"
        }
      ],
      "stateMutability": "nonpayable",
      "type": "constructor"
    },
    {
      "inputs": [
        {
          "internalType": "address",
          "name": "spender",
          "type": "address"
        },
        {
          "internalType": "uint256",
          "name": "allowance",
          "type": "uint256"
        },
        {
          "internalType": "uint256",
          "name": "needed",
          "type": "uint256"
        }
      ],
      "name": "ERC20InsufficientAllowance",
      "type": "error"
    },
    {
      "inputs": [
        {
          "internalType": "address",
          "name": "sender",
          "type": "address"
        },
        {
          "internalType": "uint256",
          "name": "balance",
          "type": "uint256"
        },
        {
          "internalType": "uint256",
          "name": "needed",
          "type": "uint256"
        }
      ],
      "name": "ERC20InsufficientBalance",
      "type": "error"
    },
    {
      "inputs": [
        {
          "internalType": "address",
          "name": "approver",
          "type": "address"
        }
      ],
      "name": "ERC20InvalidApprover",
      "type": "error"
    },
    {
      "inputs": [
        {
          "internalType": "address",
          "name": "receiver",
          "type": "address"
        }
      ],
      "name": "ERC20InvalidReceiver",
      "type": "error"
    },
    {
      "inputs": [
        {
          "internalType": "address",
          "name": "sender",
          "type": "address"
        }
      ],
      "name": "ERC20InvalidSender",
      "type": "error"
    },
    {
      "inputs": [
        {
          "internalType": "address",
          "name": "spender",
          "type": "address"
        }
      ],
      "name": "ERC20InvalidSpender",
      "type": "error"
    },
    {
      "anonymous": false,
      "inputs": [
        {
          "indexed": true,
          "internalType": "address",
          "name": "owner",
          "type": "address"
        },
        {
          "indexed": true,
          "internalType": "address",
          "name": "spender",
          "type": "address"
        },
        {
          "indexed": false,
          "internalType": "uint256",
          "name": "value",
          "type": "uint256"
        }
      ],
      "name": "Approval",
      "type": "event"
    },
    {
      "anonymous": false,
      "inputs": [
        {
          "indexed": true,
          "internalType": "address",
          "name": "from",
          "type": "address"
        },
        {
          "indexed": true,
          "internalType": "address",
          "name": "to",
          "type": "address"
        },
        {
          "indexed": false,
          "internalType": "uint256",
          "name": "value",
          "type": "uint256"
        }
      ],
      "name": "Transfer",
      "type": "event"
    },
    {
      "inputs": [
        {
          "internalType": "address",
          "name": "owner",
          "type": "address"
        },
        {
          "internalType": "address",
          "name": "spender",
          "type": "address"
        }
      ],
      "name": "allowance",
      "outputs": [
        {
          "internalType": "uint256",
          "name": "",
          "type": "uint256"
        }
      ],
      "stateMutability": "view",
      "type": "function",
      "constant": true
    },
    {
      "inputs": [
        {
          "internalType": "address",
          "name": "spender",
          "type": "address"
        },
        {
          "internalType": "uint256",
          "name": "value",
          "type": "uint256"
        }
      ],
      "name": "approve",
      "outputs": [
        {
          "internalType": "bool",
          "name": "",
          "type": "bool"
        }
      ],
      "stateMutability": "nonpayable",
      "type": "function"
    },
    {
      "inputs": [
        {
          "internalType": "address",
          "name": "account",
          "type": "address"
        }
      ],
      "name": "balanceOf",
      "outputs": [
        {
          "internalType": "uint256",
          "name": "",
          "type": "uint256"
        }
      ],
      "stateMutability": "view",
      "type": "function",
      "constant": true
    },
    {
      "inputs": [],
      "name": "decimals",
      "outputs": [
        {
          "internalType": "uint8",
          "name": "",
          "type": "uint8"
        }
      ],
      "stateMutability": "view",
      "type": "function",
      "constant": true
    },
    {
      "inputs": [],
      "name": "name",
      "outputs": [
        {
          "internalType": "string",
          "name": "",
          "type": "string"
        }
      ],
      "stateMutability": "view",
      "type": "function",
      "constant": true
    },
    {
      "inputs": [],
      "name": "symbol",
      "outputs": [
        {
          "internalType": "string",
          "name": "",
          "type": "string"
        }
      ],
      "stateMutability": "view",
      "type": "function",
      "constant": true
    },
    {
      "inputs": [],
      "name": "totalSupply",
      "outputs": [
        {
          "internalType": "uint256",
          "name": "",
          "type": "uint256"
        }
      ],
      "stateMutability": "view",
      "type": "function",
      "constant": true
    },
    {
      "inputs": [
        {
          "internalType": "address",
          "name": "from",
          "type": "address"
        },
        {
          "internalType": "address",
          "name": "to",
          "type": "address"
        },
        {
          "internalType": "uint256",
          "name": "value",
          "type": "uint256"
        }
      ],
      "name": "transferFrom",
      "outputs": [
        {
          "internalType": "bool",
          "name": "",
          "type": "bool"
        }
      ],
      "stateMutability": "nonpayable",
      "type": "function"
    },
    {
      "inputs": [
        {
          "internalType": "address",
          "name": "",
          "type": "address"
        }
      ],
      "name": "whiteList",
      "outputs": [
        {
          "internalType": "bool",
          "name": "",
          "type": "bool"
        }
      ],
      "stateMutability": "view",
      "type": "function",
      "constant": true
    },
    {
      "inputs": [
        {
          "internalType": "address",
          "name": "_treasuryWallet",
          "type": "address"
        }
      ],
      "name": "setTreasuryWallet",
      "outputs": [],
      "stateMutability": "nonpayable",
      "type": "function"
    },
    {
      "inputs": [
        {
          "internalType": "address",
          "name": "_address",
          "type": "address"
        },
        {
          "internalType": "bool",
          "name": "_isTrue",
          "type": "bool"
        }
      ],
      "name": "setWhiteList",
      "outputs": [],
      "stateMutability": "nonpayable",
      "type": "function"
    },
    {
      "inputs": [
        {
          "internalType": "uint256",
          "name": "_preAmount",
          "type": "uint256"
        }
      ],
      "name": "setTranserTaxPre",
      "outputs": [],
      "stateMutability": "nonpayable",
      "type": "function"
    },
    {
      "inputs": [
        {
          "internalType": "address",
          "name": "to",
          "type": "address"
        },
        {
          "internalType": "uint256",
          "name": "value",
          "type": "uint256"
        }
      ],
      "name": "transfer",
      "outputs": [
        {
          "internalType": "bool",
          "name": "",
          "type": "bool"
        }
      ],
      "stateMutability": "nonpayable",
      "type": "function"
    },
    {
      "inputs": [
        {
          "internalType": "address",
          "name": "_from",
          "type": "address"
        },
        {
          "internalType": "address",
          "name": "_to",
          "type": "address"
        },
        {
          "internalType": "uint256",
          "name": "_amount",
          "type": "uint256"
        }
      ],
      "name": "transfer",
      "outputs": [],
      "stateMutability": "nonpayable",
      "type": "function"
    }
  ],
  "bytecode": "0x608060405262000014620001fc60201b60201c565b600a62000022919062000644565b611b5862000031919062000694565b6005556064600260055462000047919062000694565b6200005391906200070b565b60065560646005805462000068919062000694565b6200007491906200070b565b600755600360085534801562000088575f80fd5b5060405162002270380380620022708339818101604052810190620000ae9190620007a7565b6040518060400160405280600981526020017f54657374546f6b656e00000000000000000000000000000000000000000000008152506040518060400160405280600481526020017f74746b6e0000000000000000000000000000000000000000000000000000000081525081600390816200012b919062000a32565b5080600490816200013d919062000a32565b5050503360095f6101000a81548173ffffffffffffffffffffffffffffffffffffffff021916908373ffffffffffffffffffffffffffffffffffffffff16021790555080600a5f6101000a81548173ffffffffffffffffffffffffffffffffffffffff021916908373ffffffffffffffffffffffffffffffffffffffff160217905550620001f560095f9054906101000a900473ffffffffffffffffffffffffffffffffffffffff166005546200020460201b60201c565b5062000be3565b5f6012905090565b5f73ffffffffffffffffffffffffffffffffffffffff168273ffffffffffffffffffffffffffffffffffffffff160362000277575f6040517fec442f050000000000000000000000000000000000000000000000000000000081526004016200026e919062000b27565b60405180910390fd5b6200028a5f83836200028e60201b60201c565b5050565b5f73ffffffffffffffffffffffffffffffffffffffff168373ffffffffffffffffffffffffffffffffffffffff1603620002e2578060025f828254620002d5919062000b42565b92505081905550620003b3565b5f805f8573ffffffffffffffffffffffffffffffffffffffff1673ffffffffffffffffffffffffffffffffffffffff1681526020019081526020015f20549050818110156200036e578381836040517fe450d38c000000000000000000000000000000000000000000000000000000008152600401620003659392919062000b8d565b60405180910390fd5b8181035f808673ffffffffffffffffffffffffffffffffffffffff1673ffffffffffffffffffffffffffffffffffffffff1681526020019081526020015f2081905550505b5f73ffffffffffffffffffffffffffffffffffffffff168273ffffffffffffffffffffffffffffffffffffffff1603620003fc578060025f828254039250508190555062000446565b805f808473ffffffffffffffffffffffffffffffffffffffff1673ffffffffffffffffffffffffffffffffffffffff1681526020019081526020015f205f82825401925050819055505b8173ffffffffffffffffffffffffffffffffffffffff168373ffffffffffffffffffffffffffffffffffffffff167fddf252ad1be2c89b69c2b068fc378daa952ba7f163c4a11628f55a4df523b3ef83604051620004a5919062000bc8565b60405180910390a3505050565b7f4e487b71000000000000000000000000000000000000000000000000000000005f52601160045260245ffd5b5f8160011c9050919050565b5f808291508390505b60018511156200053c57808604811115620005145762000513620004b2565b5b6001851615620005245780820291505b80810290506200053485620004df565b9450620004f4565b94509492505050565b5f8262000556576001905062000628565b8162000565575f905062000628565b81600181146200057e57600281146200058957620005bf565b600191505062000628565b60ff8411156200059e576200059d620004b2565b5b8360020a915084821115620005b857620005b7620004b2565b5b5062000628565b5060208310610133831016604e8410600b8410161715620005f95782820a905083811115620005f357620005f2620004b2565b5b62000628565b620006088484846001620004eb565b92509050818404811115620006225762000621620004b2565b5b81810290505b9392505050565b5f819050919050565b5f60ff82169050919050565b5f62000650826200062f565b91506200065d8362000638565b92506200068c7fffffffffffffffffffffffffffffffffffffffffffffffffffffffffffffffff848462000545565b905092915050565b5f620006a0826200062f565b9150620006ad836200062f565b9250828202620006bd816200062f565b91508282048414831517620006d757620006d6620004b2565b5b5092915050565b7f4e487b71000000000000000000000000000000000000000000000000000000005f52601260045260245ffd5b5f62000717826200062f565b915062000724836200062f565b925082620007375762000736620006de565b5b828204905092915050565b5f80fd5b5f73ffffffffffffffffffffffffffffffffffffffff82169050919050565b5f620007718262000746565b9050919050565b620007838162000765565b81146200078e575f80fd5b50565b5f81519050620007a18162000778565b92915050565b5f60208284031215620007bf57620007be62000742565b5b5f620007ce8482850162000791565b91505092915050565b5f81519050919050565b7f4e487b71000000000000000000000000000000000000000000000000000000005f52604160045260245ffd5b7f4e487b71000000000000000000000000000000000000000000000000000000005f52602260045260245ffd5b5f60028204905060018216806200085357607f821691505b6020821081036200086957620008686200080e565b5b50919050565b5f819050815f5260205f209050919050565b5f6020601f8301049050919050565b5f82821b905092915050565b5f60088302620008cd7fffffffffffffffffffffffffffffffffffffffffffffffffffffffffffffffff8262000890565b620008d9868362000890565b95508019841693508086168417925050509392505050565b5f819050919050565b5f6200091a620009146200090e846200062f565b620008f1565b6200062f565b9050919050565b5f819050919050565b6200093583620008fa565b6200094d620009448262000921565b8484546200089c565b825550505050565b5f90565b6200096362000955565b620009708184846200092a565b505050565b5b8181101562000997576200098b5f8262000959565b60018101905062000976565b5050565b601f821115620009e657620009b0816200086f565b620009bb8462000881565b81016020851015620009cb578190505b620009e3620009da8562000881565b83018262000975565b50505b505050565b5f82821c905092915050565b5f62000a085f1984600802620009eb565b1980831691505092915050565b5f62000a228383620009f7565b9150826002028217905092915050565b62000a3d82620007d7565b67ffffffffffffffff81111562000a595762000a58620007e1565b5b62000a6582546200083b565b62000a728282856200099b565b5f60209050601f83116001811462000aa8575f841562000a93578287015190505b62000a9f858262000a15565b86555062000b0e565b601f19841662000ab8866200086f565b5f5b8281101562000ae15784890151825560018201915060208501945060208101905062000aba565b8683101562000b01578489015162000afd601f891682620009f7565b8355505b6001600288020188555050505b505050505050565b62000b218162000765565b82525050565b5f60208201905062000b3c5f83018462000b16565b92915050565b5f62000b4e826200062f565b915062000b5b836200062f565b925082820190508082111562000b765762000b75620004b2565b5b92915050565b62000b87816200062f565b82525050565b5f60608201905062000ba25f83018662000b16565b62000bb1602083018562000b7c565b62000bc0604083018462000b7c565b949350505050565b5f60208201905062000bdd5f83018462000b7c565b92915050565b61167f8062000bf15f395ff3fe608060405234801561000f575f80fd5b50600436106100e8575f3560e01c806370a082311161008a578063a8602fea11610064578063a8602fea1461025c578063a9059cbb14610278578063beabacc8146102a8578063dd62ed3e146102c4576100e8565b806370a08231146101f25780638d14e1271461022257806395d89b411461023e576100e8565b806323b872dd116100c657806323b872dd14610158578063313ce56714610188578063372c12b1146101a657806340e18be2146101d6576100e8565b806306fdde03146100ec578063095ea7b31461010a57806318160ddd1461013a575b5f80fd5b6100f46102f4565b604051610101919061105c565b60405180910390f35b610124600480360381019061011f919061110d565b610384565b6040516101319190611165565b60405180910390f35b6101426103a6565b60405161014f919061118d565b60405180910390f35b610172600480360381019061016d91906111a6565b6103af565b60405161017f9190611165565b60405180910390f35b6101906103dd565b60405161019d9190611211565b60405180910390f35b6101c060048036038101906101bb919061122a565b6103e5565b6040516101cd9190611165565b60405180910390f35b6101f060048036038101906101eb9190611255565b610402565b005b61020c6004803603810190610207919061122a565b61049b565b604051610219919061118d565b60405180910390f35b61023c600480360381019061023791906112aa565b6104e0565b005b6102466105c7565b604051610253919061105c565b60405180910390f35b6102766004803603810190610271919061122a565b610657565b005b610292600480360381019061028d919061110d565b610729565b60405161029f9190611165565b60405180910390f35b6102c260048036038101906102bd91906111a6565b61074b565b005b6102de60048036038101906102d991906112e8565b61094e565b6040516102eb919061118d565b60405180910390f35b60606003805461030390611353565b80601f016020809104026020016040519081016040528092919081815260200182805461032f90611353565b801561037a5780601f106103515761010080835404028352916020019161037a565b820191905f5260205f20905b81548152906001019060200180831161035d57829003601f168201915b5050505050905090565b5f8061038e6109d0565b905061039b8185856109d7565b600191505092915050565b5f600254905090565b5f806103b96109d0565b90506103c68582856109e9565b6103d1858585610a7b565b60019150509392505050565b5f6012905090565b600b602052805f5260405f205f915054906101000a900460ff1681565b60095f9054906101000a900473ffffffffffffffffffffffffffffffffffffffff1673ffffffffffffffffffffffffffffffffffffffff163373ffffffffffffffffffffffffffffffffffffffff1614610491576040517f08c379a0000000000000000000000000000000000000000000000000000000008152600401610488906113cd565b60405180910390fd5b8060088190555050565b5f805f8373ffffffffffffffffffffffffffffffffffffffff1673ffffffffffffffffffffffffffffffffffffffff1681526020019081526020015f20549050919050565b60095f9054906101000a900473ffffffffffffffffffffffffffffffffffffffff1673ffffffffffffffffffffffffffffffffffffffff163373ffffffffffffffffffffffffffffffffffffffff161461056f576040517f08c379a0000000000000000000000000000000000000000000000000000000008152600401610566906113cd565b60405180910390fd5b80600b5f8473ffffffffffffffffffffffffffffffffffffffff1673ffffffffffffffffffffffffffffffffffffffff1681526020019081526020015f205f6101000a81548160ff0219169083151502179055505050565b6060600480546105d690611353565b80601f016020809104026020016040519081016040528092919081815260200182805461060290611353565b801561064d5780601f106106245761010080835404028352916020019161064d565b820191905f5260205f20905b81548152906001019060200180831161063057829003601f168201915b5050505050905090565b60095f9054906101000a900473ffffffffffffffffffffffffffffffffffffffff1673ffffffffffffffffffffffffffffffffffffffff163373ffffffffffffffffffffffffffffffffffffffff16146106e6576040517f08c379a00000000000000000000000000000000000000000000000000000000081526004016106dd906113cd565b60405180910390fd5b80600a5f6101000a81548173ffffffffffffffffffffffffffffffffffffffff021916908373ffffffffffffffffffffffffffffffffffffffff16021790555050565b5f806107336109d0565b9050610740818585610a7b565b600191505092915050565b828282600654811115610793576040517f08c379a000000000000000000000000000000000000000000000000000000000815260040161078a90611435565b60405180910390fd5b600754816107a08461049b565b6107aa9190611480565b106107ea576040517f08c379a00000000000000000000000000000000000000000000000000000000081526004016107e1906114fd565b60405180910390fd5b5f80859050600b5f8973ffffffffffffffffffffffffffffffffffffffff1673ffffffffffffffffffffffffffffffffffffffff1681526020019081526020015f205f9054906101000a900460ff1615801561088d5750600b5f8873ffffffffffffffffffffffffffffffffffffffff1673ffffffffffffffffffffffffffffffffffffffff1681526020019081526020015f205f9054906101000a900460ff16155b15610932576064600854876108a2919061151b565b6108ac9190611589565b915081866108ba91906115b9565b90506108c7888883610a7b565b61090b88600a5f9054906101000a900473ffffffffffffffffffffffffffffffffffffffff1660036002866108fc919061151b565b6109069190611589565b610a7b565b61092d88600360018561091e919061151b565b6109289190611589565b610b6b565b610944565b5f9150859050610943888883610a7b565b5b5050505050505050565b5f60015f8473ffffffffffffffffffffffffffffffffffffffff1673ffffffffffffffffffffffffffffffffffffffff1681526020019081526020015f205f8373ffffffffffffffffffffffffffffffffffffffff1673ffffffffffffffffffffffffffffffffffffffff1681526020019081526020015f2054905092915050565b5f33905090565b6109e48383836001610bea565b505050565b5f6109f4848461094e565b90507fffffffffffffffffffffffffffffffffffffffffffffffffffffffffffffffff8114610a755781811015610a66578281836040517ffb8f41b2000000000000000000000000000000000000000000000000000000008152600401610a5d939291906115fb565b60405180910390fd5b610a7484848484035f610bea565b5b50505050565b5f73ffffffffffffffffffffffffffffffffffffffff168373ffffffffffffffffffffffffffffffffffffffff1603610aeb575f6040517f96c6fd1e000000000000000000000000000000000000000000000000000000008152600401610ae29190611630565b60405180910390fd5b5f73ffffffffffffffffffffffffffffffffffffffff168273ffffffffffffffffffffffffffffffffffffffff1603610b5b575f6040517fec442f05000000000000000000000000000000000000000000000000000000008152600401610b529190611630565b60405180910390fd5b610b66838383610db9565b505050565b5f73ffffffffffffffffffffffffffffffffffffffff168273ffffffffffffffffffffffffffffffffffffffff1603610bdb575f6040517f96c6fd1e000000000000000000000000000000000000000000000000000000008152600401610bd29190611630565b60405180910390fd5b610be6825f83610db9565b5050565b5f73ffffffffffffffffffffffffffffffffffffffff168473ffffffffffffffffffffffffffffffffffffffff1603610c5a575f6040517fe602df05000000000000000000000000000000000000000000000000000000008152600401610c519190611630565b60405180910390fd5b5f73ffffffffffffffffffffffffffffffffffffffff168373ffffffffffffffffffffffffffffffffffffffff1603610cca575f6040517f94280d62000000000000000000000000000000000000000000000000000000008152600401610cc19190611630565b60405180910390fd5b8160015f8673ffffffffffffffffffffffffffffffffffffffff1673ffffffffffffffffffffffffffffffffffffffff1681526020019081526020015f205f8573ffffffffffffffffffffffffffffffffffffffff1673ffffffffffffffffffffffffffffffffffffffff1681526020019081526020015f20819055508015610db3578273ffffffffffffffffffffffffffffffffffffffff168473ffffffffffffffffffffffffffffffffffffffff167f8c5be1e5ebec7d5bd14f71427d1e84f3dd0314c0f7b2291e5b200ac8c7c3b92584604051610daa919061118d565b60405180910390a35b50505050565b5f73ffffffffffffffffffffffffffffffffffffffff168373ffffffffffffffffffffffffffffffffffffffff1603610e09578060025f828254610dfd9190611480565b92505081905550610ed7565b5f805f8573ffffffffffffffffffffffffffffffffffffffff1673ffffffffffffffffffffffffffffffffffffffff1681526020019081526020015f2054905081811015610e92578381836040517fe450d38c000000000000000000000000000000000000000000000000000000008152600401610e89939291906115fb565b60405180910390fd5b8181035f808673ffffffffffffffffffffffffffffffffffffffff1673ffffffffffffffffffffffffffffffffffffffff1681526020019081526020015f2081905550505b5f73ffffffffffffffffffffffffffffffffffffffff168273ffffffffffffffffffffffffffffffffffffffff1603610f1e578060025f8282540392505081905550610f68565b805f808473ffffffffffffffffffffffffffffffffffffffff1673ffffffffffffffffffffffffffffffffffffffff1681526020019081526020015f205f82825401925050819055505b8173ffffffffffffffffffffffffffffffffffffffff168373ffffffffffffffffffffffffffffffffffffffff167fddf252ad1be2c89b69c2b068fc378daa952ba7f163c4a11628f55a4df523b3ef83604051610fc5919061118d565b60405180910390a3505050565b5f81519050919050565b5f82825260208201905092915050565b5f5b83811015611009578082015181840152602081019050610fee565b5f8484015250505050565b5f601f19601f8301169050919050565b5f61102e82610fd2565b6110388185610fdc565b9350611048818560208601610fec565b61105181611014565b840191505092915050565b5f6020820190508181035f8301526110748184611024565b905092915050565b5f80fd5b5f73ffffffffffffffffffffffffffffffffffffffff82169050919050565b5f6110a982611080565b9050919050565b6110b98161109f565b81146110c3575f80fd5b50565b5f813590506110d4816110b0565b92915050565b5f819050919050565b6110ec816110da565b81146110f6575f80fd5b50565b5f81359050611107816110e3565b92915050565b5f80604083850312156111235761112261107c565b5b5f611130858286016110c6565b9250506020611141858286016110f9565b9150509250929050565b5f8115159050919050565b61115f8161114b565b82525050565b5f6020820190506111785f830184611156565b92915050565b611187816110da565b82525050565b5f6020820190506111a05f83018461117e565b92915050565b5f805f606084860312156111bd576111bc61107c565b5b5f6111ca868287016110c6565b93505060206111db868287016110c6565b92505060406111ec868287016110f9565b9150509250925092565b5f60ff82169050919050565b61120b816111f6565b82525050565b5f6020820190506112245f830184611202565b92915050565b5f6020828403121561123f5761123e61107c565b5b5f61124c848285016110c6565b91505092915050565b5f6020828403121561126a5761126961107c565b5b5f611277848285016110f9565b91505092915050565b6112898161114b565b8114611293575f80fd5b50565b5f813590506112a481611280565b92915050565b5f80604083850312156112c0576112bf61107c565b5b5f6112cd858286016110c6565b92505060206112de85828601611296565b9150509250929050565b5f80604083850312156112fe576112fd61107c565b5b5f61130b858286016110c6565b925050602061131c858286016110c6565b9150509250929050565b7f4e487b71000000000000000000000000000000000000000000000000000000005f52602260045260245ffd5b5f600282049050600182168061136a57607f821691505b60208210810361137d5761137c611326565b5b50919050565b7f4f776e6572206f6e6c792063616e2061636365737320746869730000000000005f82015250565b5f6113b7601a83610fdc565b91506113c282611383565b602082019050919050565b5f6020820190508181035f8301526113e4816113ab565b9050919050565b7f5472616e7366657220616d6f756e7420657863656564206d6178206c696d69745f82015250565b5f61141f602083610fdc565b915061142a826113eb565b602082019050919050565b5f6020820190508181035f83015261144c81611413565b9050919050565b7f4e487b71000000000000000000000000000000000000000000000000000000005f52601160045260245ffd5b5f61148a826110da565b9150611495836110da565b92508282019050808211156114ad576114ac611453565b5b92915050565b7f546f6b616e206c696d6974206578636565642077616c6c6574000000000000005f82015250565b5f6114e7601983610fdc565b91506114f2826114b3565b602082019050919050565b5f6020820190508181035f830152611514816114db565b9050919050565b5f611525826110da565b9150611530836110da565b925082820261153e816110da565b9150828204841483151761155557611554611453565b5b5092915050565b7f4e487b71000000000000000000000000000000000000000000000000000000005f52601260045260245ffd5b5f611593826110da565b915061159e836110da565b9250826115ae576115ad61155c565b5b828204905092915050565b5f6115c3826110da565b91506115ce836110da565b92508282039050818111156115e6576115e5611453565b5b92915050565b6115f58161109f565b82525050565b5f60608201905061160e5f8301866115ec565b61161b602083018561117e565b611628604083018461117e565b949350505050565b5f6020820190506116435f8301846115ec565b9291505056fea264697066735822122030eaef395892706f5e3e57fe2b8a2864fe27f6785a7662a903369e97f81454dc64736f6c63430008150033",
  "immutableReferences": {},
  "source": "// SPDX-License-Identifier: MIT\r\n\r\n\r\npragma solidity >=0.7.0 <0.9.0;\r\n\r\n// OPENZEPPELIN LIBRIES\r\nimport \"@openzeppelin/contracts/token/ERC20/ERC20.sol\";\r\n\r\ncontract TestToken is ERC20{\r\n\r\n    uint private totalSup=7000*(10**decimals());\r\n    uint private maxTransferLimit=(totalSup*2)/100;\r\n    uint private maxtokan=(totalSup*5)/100;\r\n\r\n    uint private trnasrTaxPrecentage=3;\r\n\r\n    address private owner;\r\n    address private treasuryWallet;\r\n\r\n    mapping (address=>bool) public whiteList;\r\n\r\n    constructor(address _treasuryWallet) ERC20(\"TestToken\",\"ttkn\"){\r\n        owner=msg.sender;\r\n        treasuryWallet=_treasuryWallet;\r\n\r\n        _mint(owner,totalSup);\r\n    }\r\n\r\n    // MODIFIYERS\r\n    modifier isOwner{\r\n        require(msg.sender==owner,\"Owner only can access this\");\r\n        _;\r\n    }\r\n\r\n    modifier isAllowd(address _from,address _to, uint _amount){\r\n       \r\n            require(_amount<= maxTransferLimit,\"Transfer amount exceed max limit\");\r\n            require(balanceOf(_to)+_amount < maxtokan,\"Tokan limit exceed wallet\");\r\n        \r\n        _;\r\n    }\r\n\r\n    // FUNCTION OF SET TREASURY WALLET\r\n    function setTreasuryWallet(address _treasuryWallet)external isOwner {\r\n        treasuryWallet=_treasuryWallet;\r\n    }\r\n\r\n    // FUNCTION OF SET WHITE LIST\r\n    function setWhiteList(address _address, bool _isTrue)external isOwner{\r\n        whiteList[_address]=_isTrue;\r\n    }\r\n\r\n    // FUNCTION OF SET TRANSFER TAX PRECENTAGE\r\n    function setTranserTaxPre(uint _preAmount)external isOwner{\r\n        trnasrTaxPrecentage=_preAmount;\r\n    }\r\n\r\n    // FUNCTION OF TRANSFER \r\n    function transfer(address _from, address _to, uint _amount)public isAllowd(_from,_to,_amount) {\r\n        uint taxAmount=0;\r\n        uint amountAfterTax=_amount;\r\n\r\n        if(!whiteList[_from] && !whiteList[_to]){\r\n            taxAmount=(_amount*trnasrTaxPrecentage)/100;\r\n            amountAfterTax=_amount-taxAmount;\r\n             _transfer(_from, _to, amountAfterTax);\r\n            _transfer(_from, treasuryWallet, (taxAmount*2)/3);\r\n            _burn(_from, (taxAmount*1)/3);\r\n\r\n        }else{\r\n            taxAmount=0;\r\n            amountAfterTax=_amount;\r\n            _transfer(_from, _to, amountAfterTax);\r\n        }\r\n    }\r\n}",
  "sourcePath": "D:\\windows\\xampp\\htdocs\\first-my-dapp-20240830\\ERC20-token-2\\contracts\\TestToken.sol",
  "compiler": {
    "name": "solc",
    "version": "0.8.21+commit.d9974bed.Emscripten.clang"
  },
  "schemaVersion": "3.4.16",
  "updatedAt": "2024-09-21T08:18:28.778Z",
  "networkType": "ethereum",
  "devdoc": {
    "errors": {
      "ERC20InsufficientAllowance(address,uint256,uint256)": [
        {
          "details": "Indicates a failure with the `spender`s `allowance`. Used in transfers.",
          "params": {
            "allowance": "Amount of tokens a `spender` is allowed to operate with.",
            "needed": "Minimum amount required to perform a transfer.",
            "spender": "Address that may be allowed to operate on tokens without being their owner."
          }
        }
      ],
      "ERC20InsufficientBalance(address,uint256,uint256)": [
        {
          "details": "Indicates an error related to the current `balance` of a `sender`. Used in transfers.",
          "params": {
            "balance": "Current balance for the interacting account.",
            "needed": "Minimum amount required to perform a transfer.",
            "sender": "Address whose tokens are being transferred."
          }
        }
      ],
      "ERC20InvalidApprover(address)": [
        {
          "details": "Indicates a failure with the `approver` of a token to be approved. Used in approvals.",
          "params": {
            "approver": "Address initiating an approval operation."
          }
        }
      ],
      "ERC20InvalidReceiver(address)": [
        {
          "details": "Indicates a failure with the token `receiver`. Used in transfers.",
          "params": {
            "receiver": "Address to which tokens are being transferred."
          }
        }
      ],
      "ERC20InvalidSender(address)": [
        {
          "details": "Indicates a failure with the token `sender`. Used in transfers.",
          "params": {
            "sender": "Address whose tokens are being transferred."
          }
        }
      ],
      "ERC20InvalidSpender(address)": [
        {
          "details": "Indicates a failure with the `spender` to be approved. Used in approvals.",
          "params": {
            "spender": "Address that may be allowed to operate on tokens without being their owner."
          }
        }
      ]
    },
    "events": {
      "Approval(address,address,uint256)": {
        "details": "Emitted when the allowance of a `spender` for an `owner` is set by a call to {approve}. `value` is the new allowance."
      },
      "Transfer(address,address,uint256)": {
        "details": "Emitted when `value` tokens are moved from one account (`from`) to another (`to`). Note that `value` may be zero."
      }
    },
    "kind": "dev",
    "methods": {
      "allowance(address,address)": {
        "details": "See {IERC20-allowance}."
      },
      "approve(address,uint256)": {
        "details": "See {IERC20-approve}. NOTE: If `value` is the maximum `uint256`, the allowance is not updated on `transferFrom`. This is semantically equivalent to an infinite approval. Requirements: - `spender` cannot be the zero address."
      },
      "balanceOf(address)": {
        "details": "See {IERC20-balanceOf}."
      },
      "decimals()": {
        "details": "Returns the number of decimals used to get its user representation. For example, if `decimals` equals `2`, a balance of `505` tokens should be displayed to a user as `5.05` (`505 / 10 ** 2`). Tokens usually opt for a value of 18, imitating the relationship between Ether and Wei. This is the default value returned by this function, unless it's overridden. NOTE: This information is only used for _display_ purposes: it in no way affects any of the arithmetic of the contract, including {IERC20-balanceOf} and {IERC20-transfer}."
      },
      "name()": {
        "details": "Returns the name of the token."
      },
      "symbol()": {
        "details": "Returns the symbol of the token, usually a shorter version of the name."
      },
      "totalSupply()": {
        "details": "See {IERC20-totalSupply}."
      },
      "transfer(address,uint256)": {
        "details": "See {IERC20-transfer}. Requirements: - `to` cannot be the zero address. - the caller must have a balance of at least `value`."
      },
      "transferFrom(address,address,uint256)": {
        "details": "See {IERC20-transferFrom}. Emits an {Approval} event indicating the updated allowance. This is not required by the EIP. See the note at the beginning of {ERC20}. NOTE: Does not update the allowance if the current allowance is the maximum `uint256`. Requirements: - `from` and `to` cannot be the zero address. - `from` must have a balance of at least `value`. - the caller must have allowance for ``from``'s tokens of at least `value`."
      }
    },
    "version": 1
  },
  "userdoc": {
    "kind": "user",
    "methods": {},
    "version": 1
  }
}