{
  "contractName": "Voting",
  "abi": [
    {
      "inputs": [
        {
          "internalType": "string",
          "name": "_name",
          "type": "string"
        }
      ],
      "stateMutability": "nonpayable",
      "type": "constructor"
    },
    {
      "inputs": [
        {
          "internalType": "uint256",
          "name": "",
          "type": "uint256"
        }
      ],
      "name": "candidate_new",
      "outputs": [
        {
          "internalType": "string",
          "name": "name",
          "type": "string"
        },
        {
          "internalType": "uint256",
          "name": "voteCount",
          "type": "uint256"
        }
      ],
      "stateMutability": "view",
      "type": "function",
      "constant": true
    },
    {
      "inputs": [],
      "name": "electionName",
      "outputs": [
        {
          "internalType": "string",
          "name": "",
          "type": "string"
        }
      ],
      "stateMutability": "view",
      "type": "function",
      "constant": true
    },
    {
      "inputs": [],
      "name": "owner",
      "outputs": [
        {
          "internalType": "address",
          "name": "",
          "type": "address"
        }
      ],
      "stateMutability": "view",
      "type": "function",
      "constant": true
    },
    {
      "inputs": [],
      "name": "totalVote",
      "outputs": [
        {
          "internalType": "uint256",
          "name": "",
          "type": "uint256"
        }
      ],
      "stateMutability": "view",
      "type": "function",
      "constant": true
    },
    {
      "inputs": [
        {
          "internalType": "address",
          "name": "",
          "type": "address"
        }
      ],
      "name": "voter_new",
      "outputs": [
        {
          "internalType": "bool",
          "name": "isAuther",
          "type": "bool"
        },
        {
          "internalType": "bool",
          "name": "isVote",
          "type": "bool"
        },
        {
          "internalType": "uint256",
          "name": "vote",
          "type": "uint256"
        }
      ],
      "stateMutability": "view",
      "type": "function",
      "constant": true
    },
    {
      "inputs": [
        {
          "internalType": "string",
          "name": "_name",
          "type": "string"
        }
      ],
      "name": "addCandidate",
      "outputs": [],
      "stateMutability": "nonpayable",
      "type": "function"
    },
    {
      "inputs": [
        {
          "internalType": "address",
          "name": "_address",
          "type": "address"
        }
      ],
      "name": "autorize",
      "outputs": [],
      "stateMutability": "nonpayable",
      "type": "function"
    },
    {
      "inputs": [
        {
          "internalType": "uint256",
          "name": "_voteIndex",
          "type": "uint256"
        }
      ],
      "name": "vote",
      "outputs": [],
      "stateMutability": "nonpayable",
      "type": "function"
    },
    {
      "inputs": [],
      "name": "end",
      "outputs": [
        {
          "internalType": "uint256",
          "name": "winingcandidate",
          "type": "uint256"
        }
      ],
      "stateMutability": "view",
      "type": "function",
      "constant": true
    }
  ],
  "bytecode": "0x60806040523480156200001157600080fd5b506040516200135a3803806200135a8339818101604052810190620000379190620001ba565b80600090805190602001906200004f92919062000098565b5033600160006101000a81548173ffffffffffffffffffffffffffffffffffffffff021916908373ffffffffffffffffffffffffffffffffffffffff1602179055505062000330565b828054620000a6906200029c565b90600052602060002090601f016020900481019282620000ca576000855562000116565b82601f10620000e557805160ff191683800117855562000116565b8280016001018555821562000116579182015b8281111562000115578251825591602001919060010190620000f8565b5b50905062000125919062000129565b5090565b5b80821115620001445760008160009055506001016200012a565b5090565b60006200015f620001598462000233565b620001ff565b9050828152602081018484840111156200017857600080fd5b6200018584828562000266565b509392505050565b600082601f8301126200019f57600080fd5b8151620001b184826020860162000148565b91505092915050565b600060208284031215620001cd57600080fd5b600082015167ffffffffffffffff811115620001e857600080fd5b620001f6848285016200018d565b91505092915050565b6000604051905081810181811067ffffffffffffffff8211171562000229576200022862000301565b5b8060405250919050565b600067ffffffffffffffff82111562000251576200025062000301565b5b601f19601f8301169050602081019050919050565b60005b838110156200028657808201518184015260208101905062000269565b8381111562000296576000848401525b50505050565b60006002820490506001821680620002b557607f821691505b60208210811415620002cc57620002cb620002d2565b5b50919050565b7f4e487b7100000000000000000000000000000000000000000000000000000000600052602260045260246000fd5b7f4e487b7100000000000000000000000000000000000000000000000000000000600052604160045260246000fd5b61101a80620003406000396000f3fe608060405234801561001057600080fd5b50600436106100935760003560e01c806385e8e7a71161006657806385e8e7a71461011e5780638da5cb5b1461013c578063cb59ba561461015a578063efbe1c1c1461018b578063f1cea4c7146101a957610093565b80630121b93f1461009857806320ecb7a6146100b4578063462e91ec146100d05780637d266674146100ec575b600080fd5b6100b260048036038101906100ad9190610aac565b6101c7565b005b6100ce60048036038101906100c99190610a42565b610408565b005b6100ea60048036038101906100e59190610a6b565b6104f6565b005b61010660048036038101906101019190610a42565b6105f3565b60405161011593929190610c3c565b60405180910390f35b610126610637565b6040516101339190610c73565b60405180910390f35b6101446106c5565b6040516101519190610c21565b60405180910390f35b610174600480360381019061016f9190610aac565b6106eb565b604051610182929190610c95565b60405180910390f35b6101936107a7565b6040516101a09190610d25565b60405180910390f35b6101b1610907565b6040516101be9190610d25565b60405180910390f35b600460003373ffffffffffffffffffffffffffffffffffffffff1673ffffffffffffffffffffffffffffffffffffffff16815260200190815260200160002060000160019054906101000a900460ff1615610257576040517f08c379a000000000000000000000000000000000000000000000000000000000815260040161024e90610ce5565b60405180910390fd5b600460003373ffffffffffffffffffffffffffffffffffffffff1673ffffffffffffffffffffffffffffffffffffffff16815260200190815260200160002060000160009054906101000a900460ff166102e6576040517f08c379a00000000000000000000000000000000000000000000000000000000081526004016102dd90610d05565b60405180910390fd5b80600460003373ffffffffffffffffffffffffffffffffffffffff1673ffffffffffffffffffffffffffffffffffffffff168152602001908152602001600020600101819055506001600460003373ffffffffffffffffffffffffffffffffffffffff1673ffffffffffffffffffffffffffffffffffffffff16815260200190815260200160002060000160016101000a81548160ff0219169083151502179055506001600382815481106103c4577f4e487b7100000000000000000000000000000000000000000000000000000000600052603260045260246000fd5b906000526020600020906002020160010160008282546103e49190610dbd565b925050819055506001600260008282546103fe9190610dbd565b9250508190555050565b600160009054906101000a900473ffffffffffffffffffffffffffffffffffffffff1673ffffffffffffffffffffffffffffffffffffffff163373ffffffffffffffffffffffffffffffffffffffff1614610498576040517f08c379a000000000000000000000000000000000000000000000000000000000815260040161048f90610cc5565b60405180910390fd5b6001600460008373ffffffffffffffffffffffffffffffffffffffff1673ffffffffffffffffffffffffffffffffffffffff16815260200190815260200160002060000160006101000a81548160ff02191690831515021790555050565b600160009054906101000a900473ffffffffffffffffffffffffffffffffffffffff1673ffffffffffffffffffffffffffffffffffffffff163373ffffffffffffffffffffffffffffffffffffffff1614610586576040517f08c379a000000000000000000000000000000000000000000000000000000000815260040161057d90610cc5565b60405180910390fd5b600360405180604001604052808381526020016000815250908060018154018082558091505060019003906000526020600020906002020160009091909190915060008201518160000190805190602001906105e392919061090d565b5060208201518160010155505050565b60046020528060005260406000206000915090508060000160009054906101000a900460ff16908060000160019054906101000a900460ff16908060010154905083565b6000805461064490610e9d565b80601f016020809104026020016040519081016040528092919081815260200182805461067090610e9d565b80156106bd5780601f10610692576101008083540402835291602001916106bd565b820191906000526020600020905b8154815290600101906020018083116106a057829003601f168201915b505050505081565b600160009054906101000a900473ffffffffffffffffffffffffffffffffffffffff1681565b600381815481106106fb57600080fd5b906000526020600020906002020160009150905080600001805461071e90610e9d565b80601f016020809104026020016040519081016040528092919081815260200182805461074a90610e9d565b80156107975780601f1061076c57610100808354040283529160200191610797565b820191906000526020600020905b81548152906001019060200180831161077a57829003601f168201915b5050505050908060010154905082565b6000600160009054906101000a900473ffffffffffffffffffffffffffffffffffffffff1673ffffffffffffffffffffffffffffffffffffffff163373ffffffffffffffffffffffffffffffffffffffff1614610839576040517f08c379a000000000000000000000000000000000000000000000000000000000815260040161083090610cc5565b60405180910390fd5b6000805b600380549050811015610902578160038281548110610885577f4e487b7100000000000000000000000000000000000000000000000000000000600052603260045260246000fd5b90600052602060002090600202016001015411156108ef57600381815481106108d7577f4e487b7100000000000000000000000000000000000000000000000000000000600052603260045260246000fd5b90600052602060002090600202016001015491508092505b80806108fa90610ecf565b91505061083d565b505090565b60025481565b82805461091990610e9d565b90600052602060002090601f01602090048101928261093b5760008555610982565b82601f1061095457805160ff1916838001178555610982565b82800160010185558215610982579182015b82811115610981578251825591602001919060010190610966565b5b50905061098f9190610993565b5090565b5b808211156109ac576000816000905550600101610994565b5090565b60006109c36109be84610d71565b610d40565b9050828152602081018484840111156109db57600080fd5b6109e6848285610e5b565b509392505050565b6000813590506109fd81610fb6565b92915050565b600082601f830112610a1457600080fd5b8135610a248482602086016109b0565b91505092915050565b600081359050610a3c81610fcd565b92915050565b600060208284031215610a5457600080fd5b6000610a62848285016109ee565b91505092915050565b600060208284031215610a7d57600080fd5b600082013567ffffffffffffffff811115610a9757600080fd5b610aa384828501610a03565b91505092915050565b600060208284031215610abe57600080fd5b6000610acc84828501610a2d565b91505092915050565b610ade81610e13565b82525050565b610aed81610e25565b82525050565b6000610afe82610da1565b610b088185610dac565b9350610b18818560208601610e6a565b610b2181610fa5565b840191505092915050565b6000610b39602183610dac565b91507f4f6e6c79206f776e65722063616e2063616c6c20746869732066756e6374696f60008301527f6e000000000000000000000000000000000000000000000000000000000000006020830152604082019050919050565b6000610b9f601683610dac565b91507f796f75206861766520616c6c7265647920766f746564000000000000000000006000830152602082019050919050565b6000610bdf601e83610dac565b91507f596f7520617265206e6f7420617574686f72697a656420746f20766f746500006000830152602082019050919050565b610c1b81610e51565b82525050565b6000602082019050610c366000830184610ad5565b92915050565b6000606082019050610c516000830186610ae4565b610c5e6020830185610ae4565b610c6b6040830184610c12565b949350505050565b60006020820190508181036000830152610c8d8184610af3565b905092915050565b60006040820190508181036000830152610caf8185610af3565b9050610cbe6020830184610c12565b9392505050565b60006020820190508181036000830152610cde81610b2c565b9050919050565b60006020820190508181036000830152610cfe81610b92565b9050919050565b60006020820190508181036000830152610d1e81610bd2565b9050919050565b6000602082019050610d3a6000830184610c12565b92915050565b6000604051905081810181811067ffffffffffffffff82111715610d6757610d66610f76565b5b8060405250919050565b600067ffffffffffffffff821115610d8c57610d8b610f76565b5b601f19601f8301169050602081019050919050565b600081519050919050565b600082825260208201905092915050565b6000610dc882610e51565b9150610dd383610e51565b9250827fffffffffffffffffffffffffffffffffffffffffffffffffffffffffffffffff03821115610e0857610e07610f18565b5b828201905092915050565b6000610e1e82610e31565b9050919050565b60008115159050919050565b600073ffffffffffffffffffffffffffffffffffffffff82169050919050565b6000819050919050565b82818337600083830152505050565b60005b83811015610e88578082015181840152602081019050610e6d565b83811115610e97576000848401525b50505050565b60006002820490506001821680610eb557607f821691505b60208210811415610ec957610ec8610f47565b5b50919050565b6000610eda82610e51565b91507fffffffffffffffffffffffffffffffffffffffffffffffffffffffffffffffff821415610f0d57610f0c610f18565b5b600182019050919050565b7f4e487b7100000000000000000000000000000000000000000000000000000000600052601160045260246000fd5b7f4e487b7100000000000000000000000000000000000000000000000000000000600052602260045260246000fd5b7f4e487b7100000000000000000000000000000000000000000000000000000000600052604160045260246000fd5b6000601f19601f8301169050919050565b610fbf81610e13565b8114610fca57600080fd5b50565b610fd681610e51565b8114610fe157600080fd5b5056fea2646970667358221220a7f87aad2c0577843fdb9a92b45577b37d15e11e566550f350971f21e346820c64736f6c63430008000033",
  "immutableReferences": {},
  "source": "// SPDX-License-Identifier: MIT\r\n\r\npragma solidity >=0.7.0 <0.9.0;\r\n\r\ncontract Voting {\r\n\r\n    struct Candidate{\r\n        string name;\r\n        uint voteCount;\r\n    } \r\n\r\n    struct Voter{\r\n        bool isAuther;\r\n        bool isVote;\r\n        uint vote;\r\n    }\r\n\r\n    // GLOBAL VARIABLES\r\n    string public electionName; \r\n    address public owner;\r\n    uint public totalVote;\r\n    Candidate[] public candidate_new;\r\n\r\n    // CREATE MAPING\r\n    mapping (address=>Voter) public voter_new;\r\n\r\n    // CERATE MODIFIER\r\n    modifier owner_only(){\r\n        require(msg.sender==owner,\"Only owner can call this function\");\r\n        _;\r\n    }\r\n\r\n    // FUNCTION OF CONSTRUCTOR\r\n    constructor(string memory _name) {\r\n        electionName = _name;\r\n        owner = msg.sender;\r\n    }\r\n\r\n    // FUNCTION ADD CANDIDATES\r\n    function addCandidate(string memory _name) public owner_only{\r\n        candidate_new.push(Candidate(_name,0));\r\n    }\r\n\r\n    // \r\n    function autorize(address _address)public owner_only{\r\n        voter_new[_address].isAuther=true;\r\n    }\r\n\r\n    // FUNCTION OF VOTE\r\n    function vote(uint _voteIndex) public {\r\n        require(!voter_new[msg.sender].isVote,\"you have allredy voted\");\r\n        require(voter_new[msg.sender].isAuther,\"You are not authorized to vote\");\r\n        \r\n        voter_new[msg.sender].vote=_voteIndex;\r\n        voter_new[msg.sender].isVote=true;\r\n\r\n        candidate_new[_voteIndex].voteCount += 1;\r\n        totalVote += 1;\r\n\r\n    }\r\n\r\n    // FUNCTION OF RETUN WINNING CANDIDATES\r\n    function end() public owner_only view returns(uint winingcandidate){\r\n        uint maxvote=0;\r\n        for(uint i=0; i<candidate_new.length;i++){\r\n            if(candidate_new[i].voteCount>maxvote){\r\n                maxvote=candidate_new[i].voteCount;\r\n                winingcandidate=i;\r\n            }\r\n        }\r\n    }\r\n\r\n}\r\n",
  "sourcePath": "D:\\windows\\xampp\\htdocs\\first-my-dapp-20240830\\vating-application\\src\\contracts\\Voting.sol",
  "compiler": {
    "name": "solc",
    "version": "0.8.0+commit.c7dfd78e.Emscripten.clang"
  },
  "schemaVersion": "3.4.16",
  "updatedAt": "2024-09-02T18:07:21.248Z",
  "networkType": "ethereum",
  "devdoc": {
    "kind": "dev",
    "methods": {},
    "version": 1
  },
  "userdoc": {
    "kind": "user",
    "methods": {},
    "version": 1
  }
}