{
  "contractName": "My_App",
  "abi": [
    {
      "inputs": [
        {
          "internalType": "string",
          "name": "_name",
          "type": "string"
        },
        {
          "internalType": "int256",
          "name": "_age",
          "type": "int256"
        }
      ],
      "name": "setValue",
      "outputs": [],
      "stateMutability": "nonpayable",
      "type": "function"
    },
    {
      "inputs": [],
      "name": "getValue",
      "outputs": [
        {
          "internalType": "int256",
          "name": "",
          "type": "int256"
        },
        {
          "internalType": "string",
          "name": "",
          "type": "string"
        }
      ],
      "stateMutability": "view",
      "type": "function"
    }
  ],
  "bytecode": "0x608060405234801561001057600080fd5b506104d8806100206000396000f3fe608060405234801561001057600080fd5b50600436106100365760003560e01c8063209652551461003b5780638605a3681461005a575b600080fd5b610043610076565b6040516100519291906102f1565b60405180910390f35b610074600480360381019061006f9190610255565b610113565b005b60006060600154600080805461008b906103ea565b80601f01602080910402602001604051908101604052809291908181526020018280546100b7906103ea565b80156101045780601f106100d957610100808354040283529160200191610104565b820191906000526020600020905b8154815290600101906020018083116100e757829003601f168201915b50505050509050915091509091565b8160009080519060200190610129929190610135565b50806001819055505050565b828054610141906103ea565b90600052602060002090601f01602090048101928261016357600085556101aa565b82601f1061017c57805160ff19168380011785556101aa565b828001600101855582156101aa579182015b828111156101a957825182559160200191906001019061018e565b5b5090506101b791906101bb565b5090565b5b808211156101d45760008160009055506001016101bc565b5090565b60006101eb6101e684610352565b610321565b90508281526020810184848401111561020357600080fd5b61020e8482856103a8565b509392505050565b6000813590506102258161048b565b92915050565b600082601f83011261023c57600080fd5b813561024c8482602086016101d8565b91505092915050565b6000806040838503121561026857600080fd5b600083013567ffffffffffffffff81111561028257600080fd5b61028e8582860161022b565b925050602061029f85828601610216565b9150509250929050565b6102b28161039e565b82525050565b60006102c382610382565b6102cd818561038d565b93506102dd8185602086016103b7565b6102e68161047a565b840191505092915050565b600060408201905061030660008301856102a9565b818103602083015261031881846102b8565b90509392505050565b6000604051905081810181811067ffffffffffffffff821117156103485761034761044b565b5b8060405250919050565b600067ffffffffffffffff82111561036d5761036c61044b565b5b601f19601f8301169050602081019050919050565b600081519050919050565b600082825260208201905092915050565b6000819050919050565b82818337600083830152505050565b60005b838110156103d55780820151818401526020810190506103ba565b838111156103e4576000848401525b50505050565b6000600282049050600182168061040257607f821691505b602082108114156104165761041561041c565b5b50919050565b7f4e487b7100000000000000000000000000000000000000000000000000000000600052602260045260246000fd5b7f4e487b7100000000000000000000000000000000000000000000000000000000600052604160045260246000fd5b6000601f19601f8301169050919050565b6104948161039e565b811461049f57600080fd5b5056fea2646970667358221220ede8388cd115f38e0b133e4a6d61db4127379d67f41fd036349f82e6c14aa2e164736f6c63430008000033",
  "immutableReferences": {},
  "source": "// SPDX-License-Identifier: MIT\r\n\r\npragma solidity >=0.7.0 <0.9.0;\r\n\r\ncontract My_App {\r\n    string name;\r\n    int age;\r\n\r\n    function setValue(string memory _name, int _age) public {\r\n        name = _name;\r\n        age = _age;\r\n    }\r\n\r\n    function getValue() public view returns (int, string memory) {\r\n        return (age, name);\r\n    }\r\n}\r\n",
  "sourcePath": "D:\\practice dapp\\my-app\\contracts\\My_App.sol",
  "compiler": {
    "name": "solc",
    "version": "0.8.0+commit.c7dfd78e.Emscripten.clang"
  },
  "schemaVersion": "3.4.16",
  "updatedAt": "2024-09-02T12:48:04.824Z",
  "devdoc": {
    "kind": "dev",
    "methods": {},
    "version": 1
  },
  "userdoc": {
    "kind": "user",
    "methods": {},
    "version": 1
  }
}